{"abi":[{"type":"constructor","inputs":[{"name":"_cUSD","type":"address","internalType":"address"}],"stateMutability":"nonpayable"},{"type":"function","name":"batchSend","inputs":[{"name":"payments","type":"tuple[]","internalType":"struct CeloPayAgent.Payment[]","components":[{"name":"recipient","type":"address","internalType":"address"},{"name":"amount","type":"uint256","internalType":"uint256"}]}],"outputs":[],"stateMutability":"nonpayable"},{"type":"function","name":"cUSD","inputs":[],"outputs":[{"name":"","type":"address","internalType":"contract IERC20"}],"stateMutability":"view"},{"type":"function","name":"getBalance","inputs":[{"name":"account","type":"address","internalType":"address"}],"outputs":[{"name":"","type":"uint256","internalType":"uint256"}],"stateMutability":"view"},{"type":"function","name":"owner","inputs":[],"outputs":[{"name":"","type":"address","internalType":"address"}],"stateMutability":"view"},{"type":"function","name":"renounceOwnership","inputs":[],"outputs":[],"stateMutability":"nonpayable"},{"type":"function","name":"sendPayment","inputs":[{"name":"to","type":"address","internalType":"address"},{"name":"amount","type":"uint256","internalType":"uint256"},{"name":"memo","type":"string","internalType":"string"}],"outputs":[],"stateMutability":"nonpayable"},{"type":"function","name":"transferOwnership","inputs":[{"name":"newOwner","type":"address","internalType":"address"}],"outputs":[],"stateMutability":"nonpayable"},{"type":"event","name":"BatchPaymentExecuted","inputs":[{"name":"from","type":"address","indexed":true,"internalType":"address"},{"name":"totalAmount","type":"uint256","indexed":false,"internalType":"uint256"},{"name":"recipientCount","type":"uint256","indexed":false,"internalType":"uint256"},{"name":"timestamp","type":"uint256","indexed":false,"internalType":"uint256"}],"anonymous":false},{"type":"event","name":"OwnershipTransferred","inputs":[{"name":"previousOwner","type":"address","indexed":true,"internalType":"address"},{"name":"newOwner","type":"address","indexed":true,"internalType":"address"}],"anonymous":false},{"type":"event","name":"PaymentExecuted","inputs":[{"name":"from","type":"address","indexed":true,"internalType":"address"},{"name":"to","type":"address","indexed":true,"internalType":"address"},{"name":"amount","type":"uint256","indexed":false,"internalType":"uint256"},{"name":"memo","type":"string","indexed":false,"internalType":"string"},{"name":"timestamp","type":"uint256","indexed":false,"internalType":"uint256"}],"anonymous":false},{"type":"error","name":"OwnableInvalidOwner","inputs":[{"name":"owner","type":"address","internalType":"address"}]},{"type":"error","name":"OwnableUnauthorizedAccount","inputs":[{"name":"account","type":"address","internalType":"address"}]}],"bytecode":{"object":"0x608060405234801561001057600080fd5b50604051610b58380380610b5883398101604081905261002f9161012b565b338061005657604051631e4fbdf760e01b8152600060048201526024015b60405180910390fd5b61005f816100db565b506001600160a01b0381166100b65760405162461bcd60e51b815260206004820152601460248201527f496e76616c696420635553442061646472657373000000000000000000000000604482015260640161004d565b600180546001600160a01b0319166001600160a01b039290921691909117905561015b565b600080546001600160a01b038381166001600160a01b0319831681178455604051919092169283917f8be0079c531659141344cd1fd0a4f28419497f9722a3daafe3b4186f6b6457e09190a35050565b60006020828403121561013d57600080fd5b81516001600160a01b038116811461015457600080fd5b9392505050565b6109ee8061016a6000396000f3fe608060405234801561001057600080fd5b506004361061007d5760003560e01c8063715018a61161005b578063715018a6146100da5780638da5cb5b146100e2578063f2fde38b146100f3578063f8b2cb4f1461010657600080fd5b80630ecb9d23146100825780631fccf6721461009757806344d6dcae146100c7575b600080fd5b6100956100903660046107c7565b610127565b005b6001546100aa906001600160a01b031681565b6040516001600160a01b0390911681526020015b60405180910390f35b6100956100d536600461085a565b6104e2565b610095610683565b6000546001600160a01b03166100aa565b6100956101013660046108e4565b610697565b6101196101143660046108e4565b6106d5565b6040519081526020016100be565b8061016a5760405162461bcd60e51b815260206004820152600e60248201526d456d707479207061796d656e747360901b60448201526064015b60405180910390fd5b60148111156101af5760405162461bcd60e51b81526020600482015260116024820152704d617820323020726563697069656e747360781b6044820152606401610161565b6000805b828110156102c05760008484838181106101cf576101cf610906565b6101e592602060409092020190810191506108e4565b6001600160a01b03160361022f5760405162461bcd60e51b8152602060048201526011602482015270125b9d985b1a59081c9958da5c1a595b9d607a1b6044820152606401610161565b600084848381811061024357610243610906565b905060400201602001351161028f5760405162461bcd60e51b81526020600482015260126024820152710416d6f756e74206d757374206265203e20360741b6044820152606401610161565b8383828181106102a1576102a1610906565b90506040020160200135826102b6919061091c565b91506001016101b3565b50600154604051636eb1769f60e11b815233600482015230602482015282916001600160a01b03169063dd62ed3e90604401602060405180830381865afa15801561030f573d6000803e3d6000fd5b505050506040513d601f19601f82011682018060405250810190610333919061093d565b101561037a5760405162461bcd60e51b8152602060048201526016602482015275496e73756666696369656e7420616c6c6f77616e636560501b6044820152606401610161565b60005b8281101561049a576001546001600160a01b03166323b872dd338686858181106103a9576103a9610906565b6103bf92602060409092020190810191506108e4565b8787868181106103d1576103d1610906565b6040805160e088901b6001600160e01b03191681526001600160a01b0396871660048201529490951660248501529093020160200135604482015260640190506020604051808303816000875af1158015610430573d6000803e3d6000fd5b505050506040513d601f19601f820116820180604052508101906104549190610956565b6104925760405162461bcd60e51b815260206004820152600f60248201526e151c985b9cd9995c8819985a5b1959608a1b6044820152606401610161565b60010161037d565b5060408051828152602081018490524281830152905133917f4a1388aea7224a89ef02d534416fc0a0b8c115d983b126a21ec4d613d4fa2e12919081900360600190a2505050565b6001600160a01b03841661052c5760405162461bcd60e51b8152602060048201526011602482015270125b9d985b1a59081c9958da5c1a595b9d607a1b6044820152606401610161565b600083116105715760405162461bcd60e51b81526020600482015260126024820152710416d6f756e74206d757374206265203e20360741b6044820152606401610161565b6001546040516323b872dd60e01b81523360048201526001600160a01b03868116602483015260448201869052909116906323b872dd906064016020604051808303816000875af11580156105ca573d6000803e3d6000fd5b505050506040513d601f19601f820116820180604052508101906105ee9190610956565b61062c5760405162461bcd60e51b815260206004820152600f60248201526e151c985b9cd9995c8819985a5b1959608a1b6044820152606401610161565b836001600160a01b0316336001600160a01b03167f301a7ee10cd2a20ba3341e891d2a22448dc29f9ab05956da5c04ee1d405c728f858585426040516106759493929190610978565b60405180910390a350505050565b61068b61074a565b6106956000610777565b565b61069f61074a565b6001600160a01b0381166106c957604051631e4fbdf760e01b815260006004820152602401610161565b6106d281610777565b50565b6001546040516370a0823160e01b81526001600160a01b03838116600483015260009216906370a0823190602401602060405180830381865afa158015610720573d6000803e3d6000fd5b505050506040513d601f19601f82011682018060405250810190610744919061093d565b92915050565b6000546001600160a01b031633146106955760405163118cdaa760e01b8152336004820152602401610161565b600080546001600160a01b038381166001600160a01b0319831681178455604051919092169283917f8be0079c531659141344cd1fd0a4f28419497f9722a3daafe3b4186f6b6457e09190a35050565b600080602083850312156107da57600080fd5b823567ffffffffffffffff8111156107f157600080fd5b8301601f8101851361080257600080fd5b803567ffffffffffffffff81111561081957600080fd5b8560208260061b840101111561082e57600080fd5b6020919091019590945092505050565b80356001600160a01b038116811461085557600080fd5b919050565b6000806000806060858703121561087057600080fd5b6108798561083e565b935060208501359250604085013567ffffffffffffffff81111561089c57600080fd5b8501601f810187136108ad57600080fd5b803567ffffffffffffffff8111156108c457600080fd5b8760208284010111156108d657600080fd5b949793965060200194505050565b6000602082840312156108f657600080fd5b6108ff8261083e565b9392505050565b634e487b7160e01b600052603260045260246000fd5b8082018082111561074457634e487b7160e01b600052601160045260246000fd5b60006020828403121561094f57600080fd5b5051919050565b60006020828403121561096857600080fd5b815180151581146108ff57600080fd5b848152606060208201528260608201528284608083013760006080848301015260006080601f19601f86011683010190508260408301529594505050505056fea264697066735822122067f2ed8f9fdb0fe634507f491c77990efe504f10372e7a790df5b0c5543a4fad64736f6c634300081c0033","linkReferences":{}},"methodIdentifiers":{"batchSend((address,uint256)[])":"0ecb9d23","cUSD()":"1fccf672","getBalance(address)":"f8b2cb4f","owner()":"8da5cb5b","renounceOwnership()":"715018a6","sendPayment(address,uint256,string)":"44d6dcae","transferOwnership(address)":"f2fde38b"},"id":27}