{"abi":[{"type":"constructor","inputs":[{"name":"_cUSD","type":"address","internalType":"address"}],"stateMutability":"nonpayable"},{"type":"function","name":"cUSD","inputs":[],"outputs":[{"name":"","type":"address","internalType":"contract IERC20"}],"stateMutability":"view"},{"type":"function","name":"cancel","inputs":[{"name":"groupId","type":"uint256","internalType":"uint256"}],"outputs":[],"stateMutability":"nonpayable"},{"type":"function","name":"contribute","inputs":[{"name":"groupId","type":"uint256","internalType":"uint256"},{"name":"amount","type":"uint256","internalType":"uint256"}],"outputs":[],"stateMutability":"nonpayable"},{"type":"function","name":"contributions","inputs":[{"name":"","type":"uint256","internalType":"uint256"},{"name":"","type":"address","internalType":"address"}],"outputs":[{"name":"","type":"uint256","internalType":"uint256"}],"stateMutability":"view"},{"type":"function","name":"contributors","inputs":[{"name":"","type":"uint256","internalType":"uint256"},{"name":"","type":"uint256","internalType":"uint256"}],"outputs":[{"name":"","type":"address","internalType":"address"}],"stateMutability":"view"},{"type":"function","name":"createGroup","inputs":[{"name":"recipient","type":"address","internalType":"address"},{"name":"targetAmount","type":"uint256","internalType":"uint256"},{"name":"description","type":"string","internalType":"string"},{"name":"deadlineTimestamp","type":"uint256","internalType":"uint256"}],"outputs":[{"name":"","type":"uint256","internalType":"uint256"}],"stateMutability":"nonpayable"},{"type":"function","name":"finalize","inputs":[{"name":"groupId","type":"uint256","internalType":"uint256"}],"outputs":[],"stateMutability":"nonpayable"},{"type":"function","name":"getContribution","inputs":[{"name":"groupId","type":"uint256","internalType":"uint256"},{"name":"contributor","type":"address","internalType":"address"}],"outputs":[{"name":"","type":"uint256","internalType":"uint256"}],"stateMutability":"view"},{"type":"function","name":"getContributors","inputs":[{"name":"groupId","type":"uint256","internalType":"uint256"}],"outputs":[{"name":"","type":"address[]","internalType":"address[]"}],"stateMutability":"view"},{"type":"function","name":"getGroup","inputs":[{"name":"groupId","type":"uint256","internalType":"uint256"}],"outputs":[{"name":"","type":"tuple","internalType":"struct GroupPayment.Group","components":[{"name":"initiator","type":"address","internalType":"address"},{"name":"recipient","type":"address","internalType":"address"},{"name":"targetAmount","type":"uint256","internalType":"uint256"},{"name":"collectedAmount","type":"uint256","internalType":"uint256"},{"name":"description","type":"string","internalType":"string"},{"name":"status","type":"uint8","internalType":"enum GroupPayment.Status"},{"name":"createdAt","type":"uint256","internalType":"uint256"},{"name":"deadline","type":"uint256","internalType":"uint256"}]}],"stateMutability":"view"},{"type":"function","name":"groupCount","inputs":[],"outputs":[{"name":"","type":"uint256","internalType":"uint256"}],"stateMutability":"view"},{"type":"function","name":"groups","inputs":[{"name":"","type":"uint256","internalType":"uint256"}],"outputs":[{"name":"initiator","type":"address","internalType":"address"},{"name":"recipient","type":"address","internalType":"address"},{"name":"targetAmount","type":"uint256","internalType":"uint256"},{"name":"collectedAmount","type":"uint256","internalType":"uint256"},{"name":"description","type":"string","internalType":"string"},{"name":"status","type":"uint8","internalType":"enum GroupPayment.Status"},{"name":"createdAt","type":"uint256","internalType":"uint256"},{"name":"deadline","type":"uint256","internalType":"uint256"}],"stateMutability":"view"},{"type":"event","name":"ContributionMade","inputs":[{"name":"groupId","type":"uint256","indexed":true,"internalType":"uint256"},{"name":"contributor","type":"address","indexed":true,"internalType":"address"},{"name":"amount","type":"uint256","indexed":false,"internalType":"uint256"}],"anonymous":false},{"type":"event","name":"GroupCancelled","inputs":[{"name":"groupId","type":"uint256","indexed":true,"internalType":"uint256"}],"anonymous":false},{"type":"event","name":"GroupCompleted","inputs":[{"name":"groupId","type":"uint256","indexed":true,"internalType":"uint256"},{"name":"totalAmount","type":"uint256","indexed":false,"internalType":"uint256"}],"anonymous":false},{"type":"event","name":"GroupCreated","inputs":[{"name":"groupId","type":"uint256","indexed":true,"internalType":"uint256"},{"name":"initiator","type":"address","indexed":true,"internalType":"address"},{"name":"recipient","type":"address","indexed":false,"internalType":"address"},{"name":"targetAmount","type":"uint256","indexed":false,"internalType":"uint256"},{"name":"description","type":"string","indexed":false,"internalType":"string"}],"anonymous":false},{"type":"event","name":"RefundIssued","inputs":[{"name":"groupId","type":"uint256","indexed":true,"internalType":"uint256"},{"name":"contributor","type":"address","indexed":false,"internalType":"address"},{"name":"amount","type":"uint256","indexed":false,"internalType":"uint256"}],"anonymous":false}],"bytecode":{"object":"0x6080604052348015600f57600080fd5b50604051611587380380611587833981016040819052602c9160a9565b6001600160a01b03811660855760405162461bcd60e51b815260206004820152601460248201527f496e76616c696420635553442061646472657373000000000000000000000000604482015260640160405180910390fd5b600080546001600160a01b0319166001600160a01b039290921691909117905560d7565b60006020828403121560ba57600080fd5b81516001600160a01b038116811460d057600080fd5b9392505050565b6114a1806100e66000396000f3fe608060405234801561001057600080fd5b50600436106100b45760003560e01c806354346b661161007157806354346b661461017d5780638c590917146101905780638f23b326146101a357806396324bd4146101ac578063ceb60654146101d3578063e081dbf9146101f357600080fd5b806305261aea146100b957806307647b58146100ce5780631fccf672146100f45780633c1ab00f1461011f5780633d891f591461013f57806340e58ee51461016a575b600080fd5b6100cc6100c7366004610f54565b610206565b005b6100e16100dc366004610f89565b6102d9565b6040519081526020015b60405180910390f35b600054610107906001600160a01b031681565b6040516001600160a01b0390911681526020016100eb565b61013261012d366004610f54565b610546565b6040516100eb919061101b565b6100e161014d366004611067565b600360209081526000928352604080842090915290825290205481565b6100cc610178366004610f54565b6105b2565b61010761018b366004611093565b6108f9565b6100cc61019e366004611093565b610931565b6100e160015481565b6101bf6101ba366004610f54565b610ba5565b6040516100eb989796959493929190611133565b6101e66101e1366004610f54565b610c85565b6040516100eb9190611193565b6100e1610201366004611067565b610dfc565b600081815260026020526040812090600582015460ff16600281111561022e5761022e6110fb565b146102545760405162461bcd60e51b815260040161024b9061121d565b60405180910390fd5b80546001600160a01b031633148061027457508060020154816003015410155b6102cc5760405162461bcd60e51b815260206004820152602360248201527f4e6f7420696e69746961746f72206f7220746172676574206e6f7420726561636044820152621a195960ea1b606482015260840161024b565b6102d582610e26565b5050565b60006001600160a01b0386166103255760405162461bcd60e51b8152602060048201526011602482015270125b9d985b1a59081c9958da5c1a595b9d607a1b604482015260640161024b565b6000851161036a5760405162461bcd60e51b81526020600482015260126024820152710546172676574206d757374206265203e20360741b604482015260640161024b565b4282116103ac5760405162461bcd60e51b815260206004820152601060248201526f496e76616c696420646561646c696e6560801b604482015260640161024b565b60018054600091826103bd8361125b565b919050559050604051806101000160405280336001600160a01b03168152602001886001600160a01b031681526020018781526020016000815260200186868080601f016020809104026020016040519081016040528093929190818152602001838380828437600092018290525093855250506020909201915081524260208083019190915260409182018690526000848152600280835290839020845181546001600160a01b03199081166001600160a01b0392831617835593860151600183018054909516911617909255918301519181019190915560608201516003820155608082015160048201906104b49082611312565b5060a082015160058201805460ff191660018360028111156104d8576104d86110fb565b021790555060c0820151816006015560e08201518160070155905050336001600160a01b0316817f0386ea0dca267a48617d0daf792f0c26c948a34d3f4bb29cb42a9285d4d1ce158989898960405161053494939291906113d1565b60405180910390a39695505050505050565b6000818152600460209081526040918290208054835181840281018401909452808452606093928301828280156105a657602002820191906000526020600020905b81546001600160a01b03168152600190910190602001808311610588575b50505050509050919050565b600081815260026020526040812090600582015460ff1660028111156105da576105da6110fb565b146105f75760405162461bcd60e51b815260040161024b9061121d565b80546001600160a01b031633146106405760405162461bcd60e51b815260206004820152600d60248201526c2737ba1034b734ba34b0ba37b960991b604482015260640161024b565b60058101805460ff191660021790556000828152600460209081526040808320805482518185028101850190935280835291929091908301828280156106af57602002820191906000526020600020905b81546001600160a01b03168152600190910190602001808311610691575b5050505050905060005b81518110156108c8576000848152600360205260408120835182908590859081106106e6576106e6611419565b60200260200101516001600160a01b03166001600160a01b0316815260200190815260200160002054905060008111156108bf5760008581526003602052604081208451829086908690811061073e5761073e611419565b60200260200101516001600160a01b03166001600160a01b031681526020019081526020016000208190555060008054906101000a90046001600160a01b03166001600160a01b031663a9059cbb84848151811061079e5761079e611419565b6020026020010151836040518363ffffffff1660e01b81526004016107d89291906001600160a01b03929092168252602082015260400190565b6020604051808303816000875af11580156107f7573d6000803e3d6000fd5b505050506040513d601f19601f8201168201806040525081019061081b919061142f565b6108575760405162461bcd60e51b815260206004820152600d60248201526c1499599d5b990819985a5b1959609a1b604482015260640161024b565b847f7a482fdeb6bc9a1376f597068a214a7a39472bb2eff1b8cad21ba04f49ddca1b84848151811061088b5761088b611419565b6020026020010151836040516108b69291906001600160a01b03929092168252602082015260400190565b60405180910390a25b506001016106b9565b5060405183907f2e1435dd280f3a691550b0cb676cb77e678026f13b5662e64aa035bca1b8dc0890600090a2505050565b6004602052816000526040600020818154811061091557600080fd5b6000918252602090912001546001600160a01b03169150829050565b600082815260026020526040812090600582015460ff166002811115610959576109596110fb565b146109765760405162461bcd60e51b815260040161024b9061121d565b806007015442106109bb5760405162461bcd60e51b815260206004820152600f60248201526e111958591b1a5b99481c185cdcd959608a1b604482015260640161024b565b60008211610a005760405162461bcd60e51b81526020600482015260126024820152710416d6f756e74206d757374206265203e20360741b604482015260640161024b565b60008381526003602090815260408083203384529091528120549003610a4f5760008381526004602090815260408220805460018101825590835291200180546001600160a01b031916331790555b6000546040516323b872dd60e01b8152336004820152306024820152604481018490526001600160a01b03909116906323b872dd906064016020604051808303816000875af1158015610aa6573d6000803e3d6000fd5b505050506040513d601f19601f82011682018060405250810190610aca919061142f565b610b085760405162461bcd60e51b815260206004820152600f60248201526e151c985b9cd9995c8819985a5b1959608a1b604482015260640161024b565b600083815260036020908152604080832033845290915281208054849290610b31908490611458565b9250508190555081816003016000828254610b4c9190611458565b9091555050604051828152339084907f0a4a91237423e0a1766a761c7cb029311d8b95d6b1b81db1b949a70c98b4e08e9060200160405180910390a38060020154816003015410610ba057610ba083610e26565b505050565b6002602081905260009182526040909120805460018201549282015460038301546004840180546001600160a01b0394851696909416949293919291610bea9061128a565b80601f0160208091040260200160405190810160405280929190818152602001828054610c169061128a565b8015610c635780601f10610c3857610100808354040283529160200191610c63565b820191906000526020600020905b815481529060010190602001808311610c4657829003601f168201915b5050505060058301546006840154600790940154929360ff9091169290915088565b610ccc6040805161010081018252600080825260208201819052918101829052606080820183905260808201529060a0820190815260200160008152602001600081525090565b60008281526002602081815260409283902083516101008101855281546001600160a01b03908116825260018301541692810192909252918201549281019290925260038101546060830152600481018054608084019190610d2d9061128a565b80601f0160208091040260200160405190810160405280929190818152602001828054610d599061128a565b8015610da65780601f10610d7b57610100808354040283529160200191610da6565b820191906000526020600020905b815481529060010190602001808311610d8957829003601f168201915b5050509183525050600582015460209091019060ff166002811115610dcd57610dcd6110fb565b6002811115610dde57610dde6110fb565b81526006820154602082015260079091015460409091015292915050565b60008281526003602090815260408083206001600160a01b03851684529091529020545b92915050565b60008181526002602052604080822060058101805460ff191660019081179091559254928101546003820154925163a9059cbb60e01b81526001600160a01b03918216600482015260248101939093529092169063a9059cbb906044016020604051808303816000875af1158015610ea2573d6000803e3d6000fd5b505050506040513d601f19601f82011682018060405250810190610ec6919061142f565b610f125760405162461bcd60e51b815260206004820152601c60248201527f5472616e7366657220746f20726563697069656e74206661696c656400000000604482015260640161024b565b817f6d68ab904b0772380ada6eeda83e5370494b359983026ffb8fcabc07605f6a478260030154604051610f4891815260200190565b60405180910390a25050565b600060208284031215610f6657600080fd5b5035919050565b80356001600160a01b0381168114610f8457600080fd5b919050565b600080600080600060808688031215610fa157600080fd5b610faa86610f6d565b945060208601359350604086013567ffffffffffffffff811115610fcd57600080fd5b8601601f81018813610fde57600080fd5b803567ffffffffffffffff811115610ff557600080fd5b88602082840101111561100757600080fd5b959894975060200195606001359392505050565b602080825282518282018190526000918401906040840190835b8181101561105c5783516001600160a01b0316835260209384019390920191600101611035565b509095945050505050565b6000806040838503121561107a57600080fd5b8235915061108a60208401610f6d565b90509250929050565b600080604083850312156110a657600080fd5b50508035926020909101359150565b6000815180845260005b818110156110db576020818501810151868301820152016110bf565b506000602082860101526020601f19601f83011685010191505092915050565b634e487b7160e01b600052602160045260246000fd5b6003811061112f57634e487b7160e01b600052602160045260246000fd5b9052565b6001600160a01b0389811682528816602082015260408101879052606081018690526101006080820181905260009061116e908301876110b5565b905061117d60a0830186611111565b60c082019390935260e001529695505050505050565b6020815260018060a01b03825116602082015260018060a01b03602083015116604082015260408201516060820152606082015160808201526000608083015161010060a08401526111e96101208401826110b5565b905060a08401516111fd60c0850182611111565b5060c084015160e084015260e08401516101008401528091505092915050565b6020808252600e908201526d23b937bab8103737ba1037b832b760911b604082015260600190565b634e487b7160e01b600052601160045260246000fd5b60006001820161126d5761126d611245565b5060010190565b634e487b7160e01b600052604160045260246000fd5b600181811c9082168061129e57607f821691505b6020821081036112be57634e487b7160e01b600052602260045260246000fd5b50919050565b601f821115610ba057806000526020600020601f840160051c810160208510156112eb5750805b601f840160051c820191505b8181101561130b57600081556001016112f7565b5050505050565b815167ffffffffffffffff81111561132c5761132c611274565b6113408161133a845461128a565b846112c4565b6020601f821160018114611374576000831561135c5750848201515b600019600385901b1c1916600184901b17845561130b565b600084815260208120601f198516915b828110156113a45787850151825560209485019460019092019101611384565b50848210156113c25786840151600019600387901b60f8161c191681555b50505050600190811b01905550565b6001600160a01b0385168152602081018490526060604082018190528101829052818360808301376000818301608090810191909152601f909201601f191601019392505050565b634e487b7160e01b600052603260045260246000fd5b60006020828403121561144157600080fd5b8151801515811461145157600080fd5b9392505050565b80820180821115610e2057610e2061124556fea26469706673582212203d18f9c851df882462b0c1926b447b0bfe26fd725918c8f77a3f3c6b513fad7864736f6c634300081c0033","linkReferences":{}},"methodIdentifiers":{"cUSD()":"1fccf672","cancel(uint256)":"40e58ee5","contribute(uint256,uint256)":"8c590917","contributions(uint256,address)":"3d891f59","contributors(uint256,uint256)":"54346b66","createGroup(address,uint256,string,uint256)":"07647b58","finalize(uint256)":"05261aea","getContribution(uint256,address)":"e081dbf9","getContributors(uint256)":"3c1ab00f","getGroup(uint256)":"ceb60654","groupCount()":"8f23b326","groups(uint256)":"96324bd4"},"id":28}