{"abi":[{"type":"constructor","inputs":[{"name":"_cUSD","type":"address","internalType":"address"}],"stateMutability":"nonpayable"},{"type":"function","name":"cUSD","inputs":[],"outputs":[{"name":"","type":"address","internalType":"contract IERC20"}],"stateMutability":"view"},{"type":"function","name":"cancelSchedule","inputs":[{"name":"scheduleId","type":"uint256","internalType":"uint256"}],"outputs":[],"stateMutability":"nonpayable"},{"type":"function","name":"createSchedule","inputs":[{"name":"recipient","type":"address","internalType":"address"},{"name":"amount","type":"uint256","internalType":"uint256"},{"name":"intervalSeconds","type":"uint256","internalType":"uint256"},{"name":"startTimestamp","type":"uint256","internalType":"uint256"},{"name":"memo","type":"string","internalType":"string"}],"outputs":[{"name":"","type":"uint256","internalType":"uint256"}],"stateMutability":"nonpayable"},{"type":"function","name":"executeSchedule","inputs":[{"name":"scheduleId","type":"uint256","internalType":"uint256"}],"outputs":[],"stateMutability":"nonpayable"},{"type":"function","name":"getNextExecTime","inputs":[{"name":"scheduleId","type":"uint256","internalType":"uint256"}],"outputs":[{"name":"","type":"uint256","internalType":"uint256"}],"stateMutability":"view"},{"type":"function","name":"getSchedule","inputs":[{"name":"scheduleId","type":"uint256","internalType":"uint256"}],"outputs":[{"name":"","type":"tuple","internalType":"struct PaymentScheduler.Schedule","components":[{"name":"owner","type":"address","internalType":"address"},{"name":"recipient","type":"address","internalType":"address"},{"name":"amount","type":"uint256","internalType":"uint256"},{"name":"interval","type":"uint256","internalType":"uint256"},{"name":"nextExec","type":"uint256","internalType":"uint256"},{"name":"execCount","type":"uint256","internalType":"uint256"},{"name":"active","type":"bool","internalType":"bool"},{"name":"memo","type":"string","internalType":"string"}]}],"stateMutability":"view"},{"type":"function","name":"getUserSchedules","inputs":[{"name":"user","type":"address","internalType":"address"}],"outputs":[{"name":"","type":"uint256[]","internalType":"uint256[]"}],"stateMutability":"view"},{"type":"function","name":"isDue","inputs":[{"name":"scheduleId","type":"uint256","internalType":"uint256"}],"outputs":[{"name":"","type":"bool","internalType":"bool"}],"stateMutability":"view"},{"type":"function","name":"scheduleCount","inputs":[],"outputs":[{"name":"","type":"uint256","internalType":"uint256"}],"stateMutability":"view"},{"type":"function","name":"schedules","inputs":[{"name":"","type":"uint256","internalType":"uint256"}],"outputs":[{"name":"owner","type":"address","internalType":"address"},{"name":"recipient","type":"address","internalType":"address"},{"name":"amount","type":"uint256","internalType":"uint256"},{"name":"interval","type":"uint256","internalType":"uint256"},{"name":"nextExec","type":"uint256","internalType":"uint256"},{"name":"execCount","type":"uint256","internalType":"uint256"},{"name":"active","type":"bool","internalType":"bool"},{"name":"memo","type":"string","internalType":"string"}],"stateMutability":"view"},{"type":"function","name":"userSchedules","inputs":[{"name":"","type":"address","internalType":"address"},{"name":"","type":"uint256","internalType":"uint256"}],"outputs":[{"name":"","type":"uint256","internalType":"uint256"}],"stateMutability":"view"},{"type":"event","name":"ScheduleCancelled","inputs":[{"name":"scheduleId","type":"uint256","indexed":true,"internalType":"uint256"}],"anonymous":false},{"type":"event","name":"ScheduleCreated","inputs":[{"name":"scheduleId","type":"uint256","indexed":true,"internalType":"uint256"},{"name":"owner","type":"address","indexed":true,"internalType":"address"},{"name":"recipient","type":"address","indexed":false,"internalType":"address"},{"name":"amount","type":"uint256","indexed":false,"internalType":"uint256"},{"name":"interval","type":"uint256","indexed":false,"internalType":"uint256"}],"anonymous":false},{"type":"event","name":"ScheduleExecuted","inputs":[{"name":"scheduleId","type":"uint256","indexed":true,"internalType":"uint256"},{"name":"executor","type":"address","indexed":true,"internalType":"address"},{"name":"execCount","type":"uint256","indexed":false,"internalType":"uint256"}],"anonymous":false}],"bytecode":{"object":"0x6080604052348015600f57600080fd5b50604051610fd7380380610fd7833981016040819052602c9160a9565b6001600160a01b03811660855760405162461bcd60e51b815260206004820152601460248201527f496e76616c696420635553442061646472657373000000000000000000000000604482015260640160405180910390fd5b600080546001600160a01b0319166001600160a01b039290921691909117905560d7565b60006020828403121560ba57600080fd5b81516001600160a01b038116811460d057600080fd5b9392505050565b610ef1806100e66000396000f3fe608060405234801561001057600080fd5b50600436106100a95760003560e01c80639e3f8e90116100715780639e3f8e901461015a578063b40b223d1461016d578063b7ef81e11461018d578063b85b848314610196578063bdc6d9ab146101a9578063c5ca93a7146101d057600080fd5b80631fccf672146100ae578063237fc2a6146100de5780635583a930146100f357806355cd5f98146101165780638a20eacf14610129575b600080fd5b6000546100c1906001600160a01b031681565b6040516001600160a01b0390911681526020015b60405180910390f35b6100f16100ec366004610a6a565b6101f0565b005b610106610101366004610a6a565b6102ca565b60405190151581526020016100d5565b6100f1610124366004610a6a565b6102f7565b61014c610137366004610a6a565b60009081526002602052604090206004015490565b6040519081526020016100d5565b61014c610168366004610a9f565b6104e6565b61018061017b366004610ac9565b610517565b6040516100d59190610ae4565b61014c60015481565b61014c6101a4366004610b27565b610583565b6101bc6101b7366004610a6a565b610821565b6040516100d5989796959493929190610c0f565b6101e36101de366004610a6a565b610901565b6040516100d59190610c6e565b600081815260026020526040902080546001600160a01b031633146102485760405162461bcd60e51b81526020600482015260096024820152682737ba1037bbb732b960b91b60448201526064015b60405180910390fd5b600681015460ff1661028f5760405162461bcd60e51b815260206004820152601060248201526f416c726561647920696e61637469766560801b604482015260640161023f565b60068101805460ff1916905560405182907faafc09ed0175af188e56c12f5eda79a11a6d2d747621fb47b25f301d499fdc5e90600090a25050565b6000818152600260205260408120600681015460ff1680156102f0575080600401544210155b9392505050565b6000818152600260205260409020600681015460ff1661034f5760405162461bcd60e51b81526020600482015260136024820152725363686564756c65206e6f742061637469766560681b604482015260640161023f565b80600401544210156103915760405162461bcd60e51b815260206004820152600b60248201526a4e6f74207965742064756560a81b604482015260640161023f565b60038101546103a09042610d09565b60048201556005810180549060006103b783610d22565b90915550506000548154600183015460028401546040516323b872dd60e01b81526001600160a01b039384166004820152918316602483015260448201529116906323b872dd906064016020604051808303816000875af1158015610420573d6000803e3d6000fd5b505050506040513d601f19601f820116820180604052508101906104449190610d3b565b61049a5760405162461bcd60e51b815260206004820152602160248201527f5472616e73666572206661696c6564202d20636865636b20616c6c6f77616e636044820152606560f81b606482015260840161023f565b336001600160a01b0316827f0cd060ffebff8763048a20c865c5b267dd69f2bdd2e7480a7b6e3c019c23bd0c83600501546040516104da91815260200190565b60405180910390a35050565b6003602052816000526040600020818154811061050257600080fd5b90600052602060002001600091509150505481565b6001600160a01b03811660009081526003602090815260409182902080548351818402810184019094528084526060939283018282801561057757602002820191906000526020600020905b815481526020019060010190808311610563575b50505050509050919050565b60006001600160a01b0387166105cf5760405162461bcd60e51b8152602060048201526011602482015270125b9d985b1a59081c9958da5c1a595b9d607a1b604482015260640161023f565b600086116106145760405162461bcd60e51b81526020600482015260126024820152710416d6f756e74206d757374206265203e20360741b604482015260640161023f565b610e1085101561065c5760405162461bcd60e51b815260206004820152601360248201527226b4b71034b73a32b93b30b61018903437bab960691b604482015260640161023f565b600180546000918261066d83610d22565b91905055905060004286116106825742610684565b855b9050604051806101000160405280336001600160a01b031681526020018a6001600160a01b031681526020018981526020018881526020018281526020016000815260200160011515815260200186868080601f016020809104026020016040519081016040528093929190818152602001838380828437600092018290525093909452505084815260026020818152604092839020855181546001600160a01b03199081166001600160a01b03928316178355928701516001830180549094169116179091559184015190820155606083015160038201556080830151600482015560a0830151600582015560c083015160068201805460ff191691151591909117905560e083015190915060078201906107a09082610dfc565b505033600081815260036020908152604080832080546001810182559084529282902090920186905581516001600160a01b038e1681529081018c90529081018a905290915083907f2659d54ca816f3b901c502be68ba34dbc47d8df81a46ee0abe2fc04c6c5353bb9060600160405180910390a350979650505050505050565b6002602081905260009182526040909120805460018201549282015460038301546004840154600585015460068601546007870180546001600160a01b039788169990971697959694959394929360ff9092169261087e90610d73565b80601f01602080910402602001604051908101604052809291908181526020018280546108aa90610d73565b80156108f75780601f106108cc576101008083540402835291602001916108f7565b820191906000526020600020905b8154815290600101906020018083116108da57829003601f168201915b5050505050905088565b61095d60405180610100016040528060006001600160a01b0316815260200160006001600160a01b0316815260200160008152602001600081526020016000815260200160008152602001600015158152602001606081525090565b60008281526002602081815260409283902083516101008101855281546001600160a01b0390811682526001830154169281019290925291820154928101929092526003810154606083015260048101546080830152600581015460a0830152600681015460ff16151560c083015260078101805460e0840191906109e190610d73565b80601f0160208091040260200160405190810160405280929190818152602001828054610a0d90610d73565b8015610a5a5780601f10610a2f57610100808354040283529160200191610a5a565b820191906000526020600020905b815481529060010190602001808311610a3d57829003601f168201915b5050505050815250509050919050565b600060208284031215610a7c57600080fd5b5035919050565b80356001600160a01b0381168114610a9a57600080fd5b919050565b60008060408385031215610ab257600080fd5b610abb83610a83565b946020939093013593505050565b600060208284031215610adb57600080fd5b6102f082610a83565b602080825282518282018190526000918401906040840190835b81811015610b1c578351835260209384019390920191600101610afe565b509095945050505050565b60008060008060008060a08789031215610b4057600080fd5b610b4987610a83565b9550602087013594506040870135935060608701359250608087013567ffffffffffffffff811115610b7a57600080fd5b8701601f81018913610b8b57600080fd5b803567ffffffffffffffff811115610ba257600080fd5b896020828401011115610bb457600080fd5b60208201935080925050509295509295509295565b6000815180845260005b81811015610bef57602081850181015186830182015201610bd3565b506000602082860101526020601f19601f83011685010191505092915050565b6001600160a01b0389811682528816602082015260408101879052606081018690526080810185905260a0810184905282151560c082015261010060e08201819052600090610c6090830184610bc9565b9a9950505050505050505050565b6020815260018060a01b03825116602082015260018060a01b0360208301511660408201526040820151606082015260608201516080820152608082015160a082015260a082015160c0820152600060c0830151610cd060e084018215159052565b5060e083015161010080840152610ceb610120840182610bc9565b949350505050565b634e487b7160e01b600052601160045260246000fd5b80820180821115610d1c57610d1c610cf3565b92915050565b600060018201610d3457610d34610cf3565b5060010190565b600060208284031215610d4d57600080fd5b815180151581146102f057600080fd5b634e487b7160e01b600052604160045260246000fd5b600181811c90821680610d8757607f821691505b602082108103610da757634e487b7160e01b600052602260045260246000fd5b50919050565b601f821115610df757806000526020600020601f840160051c81016020851015610dd45750805b601f840160051c820191505b81811015610df45760008155600101610de0565b50505b505050565b815167ffffffffffffffff811115610e1657610e16610d5d565b610e2a81610e248454610d73565b84610dad565b6020601f821160018114610e5e5760008315610e465750848201515b600019600385901b1c1916600184901b178455610df4565b600084815260208120601f198516915b82811015610e8e5787850151825560209485019460019092019101610e6e565b5084821015610eac5786840151600019600387901b60f8161c191681555b50505050600190811b0190555056fea2646970667358221220124e4d02b4fcc48770d0ea2f3a214b86d43fea426eaa157610362bf0f139f18564736f6c634300081c0033","linkReferences":{}},"methodIdentifiers":{"cUSD()":"1fccf672","cancelSchedule(uint256)":"237fc2a6","createSchedule(address,uint256,uint256,uint256,string)":"b85b8483","executeSchedule(uint256)":"55cd5f98","getNextExecTime(uint256)":"8a20eacf","getSchedule(uint256)":"c5ca93a7","getUserSchedules(address)":"b40b223d","isDue(uint256)":"5583a930","scheduleCount()":"b7ef81e1","schedules(uint256)":"bdc6d9ab","userSchedules(address,uint256)":"9e3f8e90"},"id":29}